{
  "_format": "hh-sol-artifact-1",
  "contractName": "DocumentStorage",
  "sourceName": "contracts/DocumentStorage.sol",
  "abi": [
    {
      "inputs": [],
      "stateMutability": "nonpayable",
      "type": "constructor"
    },
    {
      "anonymous": false,
      "inputs": [
        {
          "indexed": true,
          "internalType": "bytes32",
          "name": "fileHash",
          "type": "bytes32"
        },
        {
          "indexed": false,
          "internalType": "uint256",
          "name": "timestamp",
          "type": "uint256"
        }
      ],
      "name": "DocumentRevoked",
      "type": "event"
    },
    {
      "anonymous": false,
      "inputs": [
        {
          "indexed": true,
          "internalType": "bytes32",
          "name": "fileHash",
          "type": "bytes32"
        },
        {
          "indexed": false,
          "internalType": "string",
          "name": "ipfsCid",
          "type": "string"
        },
        {
          "indexed": false,
          "internalType": "uint256",
          "name": "timestamp",
          "type": "uint256"
        }
      ],
      "name": "DocumentStored",
      "type": "event"
    },
    {
      "inputs": [
        {
          "internalType": "bytes32",
          "name": "fileHash",
          "type": "bytes32"
        }
      ],
      "name": "isRevoked",
      "outputs": [
        {
          "internalType": "bool",
          "name": "",
          "type": "bool"
        }
      ],
      "stateMutability": "view",
      "type": "function"
    },
    {
      "inputs": [],
      "name": "owner",
      "outputs": [
        {
          "internalType": "address",
          "name": "",
          "type": "address"
        }
      ],
      "stateMutability": "view",
      "type": "function"
    },
    {
      "inputs": [
        {
          "internalType": "bytes32",
          "name": "fileHash",
          "type": "bytes32"
        }
      ],
      "name": "revokeDocument",
      "outputs": [],
      "stateMutability": "nonpayable",
      "type": "function"
    },
    {
      "inputs": [
        {
          "internalType": "bytes32",
          "name": "fileHash",
          "type": "bytes32"
        },
        {
          "internalType": "string",
          "name": "ipfsCid",
          "type": "string"
        }
      ],
      "name": "storeDocument",
      "outputs": [],
      "stateMutability": "nonpayable",
      "type": "function"
    },
    {
      "inputs": [
        {
          "internalType": "bytes32",
          "name": "fileHash",
          "type": "bytes32"
        }
      ],
      "name": "verifyDocument",
      "outputs": [
        {
          "internalType": "string",
          "name": "ipfsCid",
          "type": "string"
        },
        {
          "internalType": "uint256",
          "name": "timestamp",
          "type": "uint256"
        },
        {
          "internalType": "bool",
          "name": "revoked",
          "type": "bool"
        }
      ],
      "stateMutability": "view",
      "type": "function"
    }
  ],
  "bytecode": "0x608060405234801561001057600080fd5b5033600160006101000a81548173ffffffffffffffffffffffffffffffffffffffff021916908373ffffffffffffffffffffffffffffffffffffffff160217905550610e68806100616000396000f3fe608060405234801561001057600080fd5b50600436106100575760003560e01c80634294857f1461005c578063582e69d91461008c5780638da5cb5b146100a8578063952be80d146100c6578063fe35089f146100e2575b600080fd5b61007660048036038101906100719190610622565b610114565b604051610083919061066a565b60405180910390f35b6100a660048036038101906100a191906107cb565b610140565b005b6100b06102d9565b6040516100bd9190610868565b60405180910390f35b6100e060048036038101906100db9190610622565b6102ff565b005b6100fc60048036038101906100f79190610622565b610497565b60405161010b9392919061091b565b60405180910390f35b600080600083815260200190815260200160002060020160009054906101000a900460ff169050919050565b600160009054906101000a900473ffffffffffffffffffffffffffffffffffffffff1673ffffffffffffffffffffffffffffffffffffffff163373ffffffffffffffffffffffffffffffffffffffff16146101d0576040517f08c379a00000000000000000000000000000000000000000000000000000000081526004016101c7906109a5565b60405180910390fd5b60008060008481526020019081526020016000206001015414610228576040517f08c379a000000000000000000000000000000000000000000000000000000000815260040161021f90610a11565b60405180910390fd5b604051806060016040528082815260200142815260200160001515815250600080848152602001908152602001600020600082015181600001908161026d9190610c3d565b506020820151816001015560408201518160020160006101000a81548160ff021916908315150217905550905050817fb7a8f094b1c34945a1dbc94d21805de3ec4cf7b86dd19ed64aa1a8719f3cd67782426040516102cd929190610d0f565b60405180910390a25050565b600160009054906101000a900473ffffffffffffffffffffffffffffffffffffffff1681565b600160009054906101000a900473ffffffffffffffffffffffffffffffffffffffff1673ffffffffffffffffffffffffffffffffffffffff163373ffffffffffffffffffffffffffffffffffffffff161461038f576040517f08c379a0000000000000000000000000000000000000000000000000000000008152600401610386906109a5565b60405180910390fd5b6000806000838152602001908152602001600020905060008160010154036103ec576040517f08c379a00000000000000000000000000000000000000000000000000000000081526004016103e390610d8b565b60405180910390fd5b8060020160009054906101000a900460ff161561043e576040517f08c379a000000000000000000000000000000000000000000000000000000000815260040161043590610df7565b60405180910390fd5b60018160020160006101000a81548160ff021916908315150217905550817f17ceb56661e717a45c4f9160c9106b02e3c9ab6ecb42da2b1c6a59e8cbfd4aa14260405161048b9190610e17565b60405180910390a25050565b606060008060008060008681526020019081526020016000206040518060600160405290816000820180546104cb90610a60565b80601f01602080910402602001604051908101604052809291908181526020018280546104f790610a60565b80156105445780601f1061051957610100808354040283529160200191610544565b820191906000526020600020905b81548152906001019060200180831161052757829003601f168201915b50505050508152602001600182015481526020016002820160009054906101000a900460ff161515151581525050905060008160200151036105bb576040517f08c379a00000000000000000000000000000000000000000000000000000000081526004016105b290610d8b565b60405180910390fd5b806000015181602001518260400151935093509350509193909250565b6000604051905090565b600080fd5b600080fd5b6000819050919050565b6105ff816105ec565b811461060a57600080fd5b50565b60008135905061061c816105f6565b92915050565b600060208284031215610638576106376105e2565b5b60006106468482850161060d565b91505092915050565b60008115159050919050565b6106648161064f565b82525050565b600060208201905061067f600083018461065b565b92915050565b600080fd5b600080fd5b6000601f19601f8301169050919050565b7f4e487b7100000000000000000000000000000000000000000000000000000000600052604160045260246000fd5b6106d88261068f565b810181811067ffffffffffffffff821117156106f7576106f66106a0565b5b80604052505050565b600061070a6105d8565b905061071682826106cf565b919050565b600067ffffffffffffffff821115610736576107356106a0565b5b61073f8261068f565b9050602081019050919050565b82818337600083830152505050565b600061076e6107698461071b565b610700565b90508281526020810184848401111561078a5761078961068a565b5b61079584828561074c565b509392505050565b600082601f8301126107b2576107b1610685565b5b81356107c284826020860161075b565b91505092915050565b600080604083850312156107e2576107e16105e2565b5b60006107f08582860161060d565b925050602083013567ffffffffffffffff811115610811576108106105e7565b5b61081d8582860161079d565b9150509250929050565b600073ffffffffffffffffffffffffffffffffffffffff82169050919050565b600061085282610827565b9050919050565b61086281610847565b82525050565b600060208201905061087d6000830184610859565b92915050565b600081519050919050565b600082825260208201905092915050565b60005b838110156108bd5780820151818401526020810190506108a2565b60008484015250505050565b60006108d482610883565b6108de818561088e565b93506108ee81856020860161089f565b6108f78161068f565b840191505092915050565b6000819050919050565b61091581610902565b82525050565b6000606082019050818103600083015261093581866108c9565b9050610944602083018561090c565b610951604083018461065b565b949350505050565b7f4f6e6c79206f776e65722063616e2063616c6c20746869730000000000000000600082015250565b600061098f60188361088e565b915061099a82610959565b602082019050919050565b600060208201905081810360008301526109be81610982565b9050919050565b7f446f63756d656e7420616c72656164792073746f726564000000000000000000600082015250565b60006109fb60178361088e565b9150610a06826109c5565b602082019050919050565b60006020820190508181036000830152610a2a816109ee565b9050919050565b7f4e487b7100000000000000000000000000000000000000000000000000000000600052602260045260246000fd5b60006002820490506001821680610a7857607f821691505b602082108103610a8b57610a8a610a31565b5b50919050565b60008190508160005260206000209050919050565b60006020601f8301049050919050565b600082821b905092915050565b600060088302610af37fffffffffffffffffffffffffffffffffffffffffffffffffffffffffffffffff82610ab6565b610afd8683610ab6565b95508019841693508086168417925050509392505050565b6000819050919050565b6000610b3a610b35610b3084610902565b610b15565b610902565b9050919050565b6000819050919050565b610b5483610b1f565b610b68610b6082610b41565b848454610ac3565b825550505050565b600090565b610b7d610b70565b610b88818484610b4b565b505050565b5b81811015610bac57610ba1600082610b75565b600181019050610b8e565b5050565b601f821115610bf157610bc281610a91565b610bcb84610aa6565b81016020851015610bda578190505b610bee610be685610aa6565b830182610b8d565b50505b505050565b600082821c905092915050565b6000610c1460001984600802610bf6565b1980831691505092915050565b6000610c2d8383610c03565b9150826002028217905092915050565b610c4682610883565b67ffffffffffffffff811115610c5f57610c5e6106a0565b5b610c698254610a60565b610c74828285610bb0565b600060209050601f831160018114610ca75760008415610c95578287015190505b610c9f8582610c21565b865550610d07565b601f198416610cb586610a91565b60005b82811015610cdd57848901518255600182019150602085019450602081019050610cb8565b86831015610cfa5784890151610cf6601f891682610c03565b8355505b6001600288020188555050505b505050505050565b60006040820190508181036000830152610d2981856108c9565b9050610d38602083018461090c565b9392505050565b7f446f63756d656e74206e6f7420666f756e640000000000000000000000000000600082015250565b6000610d7560128361088e565b9150610d8082610d3f565b602082019050919050565b60006020820190508181036000830152610da481610d68565b9050919050565b7f416c7265616479207265766f6b65640000000000000000000000000000000000600082015250565b6000610de1600f8361088e565b9150610dec82610dab565b602082019050919050565b60006020820190508181036000830152610e1081610dd4565b9050919050565b6000602082019050610e2c600083018461090c565b9291505056fea2646970667358221220f86fc98850c86adc76c89d9a03dfb36e4bf1c5b72c5c00c38a4907a67ed5e58964736f6c63430008140033",
  "linkReferences": {},
  "deployedLinkReferences": {}
}